:020000040800F2
:10000000000400203DB20008F1A90008F3A900088F
:10001000F5A90008F7A90008F9A9000800000000E8
:10002000000000000000000000000000FBA9000824
:10003000FDA9000800000000FFA9000801AA0008AF
:10004000134B0008134B0008134B0008134B000818
:10005000134B0008134B0008134B0008134B000808
:10006000134B0008134B0008134B0008134B0008F8
:10007000134B0008134B0008134B0008134B0008E8
:10008000134B0008134B0008134B0008134B0008D8
:10009000134B0008134B0008134B0008134B0008C8
:1000A000134B0008134B0008134B0008134B0008B8
:1000B000134B0008134B0008134B0008134B0008A8
:1000C000134B0008134B0008134B0008134B000898
:1000D000134B00080DAA000815AA00081DAA000865
:1000E000134B0008134B0008134B0008134B000878
:1000F000134B0008134B0008134B0008134B000868
:10010000134B0008134B0008134B0008134B000857
:1001100025AA00082DAA0008134B0008134B00085D
:10012000134B0008134B0008134B0008134B000837
:1001300000B5B5B001F05FFC02F024F8052002F034
:10014000DBFA0022022147F6817000F0A3FA00A832
:1001500002F0B1F8002810D09DF83E00DFF8401BF7
:10016000087002F0E6FADFF83C1B0860DFF8300B9D
:100170000178DFF8740D02F00BFB35B000BD00B55F
:10018000A7B0DFF81C0B0078002873D1DFF8180B3C
:10019000007800286ED0DFF8800C0078002869D045
:1001A00042F21071DFF8FC0A006802F0C6FA00287B
:1001B00060D0DFF8680C02F0EBFA02F0BAFADFF870
:1001C000E41A0860DFF8580C0078401CDFF8501C77
:1001D0000870C0B2032807D3DFF8480C02F0D8FA41
:1001E000DFF8340C0021017019A802F045F900284D
:1001F00004D1DFF8340C02F0CBFA3BE00DF18501BD
:10020000DFF8280C02F0C4FA09A8402102F01CFB18
:1002100000A8242102F018FBDFF8143C0DF1850240
:10022000DFF8101C09A802F023FB09A9DFF8BC0CB9
:1002300002F0AEFA09A802F035FB010000AA89B26B
:1002400009A802F076FB00A9DFF8A40C02F0A0FADE
:1002500000AA0DF18501DFF89C0C02F037F90128A6
:1002600008D1DFF83C0A01210170DFF88C0C02F0A4
:100270008FFAFFE727B000BD80B502F09FF900F0CC
:100280000AF9002801D001F04CFBFFF778FF01BD0F
:100290000100002902D0DFF8641C0860704780B5B7
:1002A000C0B202F0AEF8002801D0012000E000202A
:1002B000C0B202BD80B502F08FF8C0B202BDF8B581
:1002C00004000D0016001F0011222100DFF8240C8D
:1002D00002F08EFF21222900DFF8540B02F088FF84
:1002E000DFF8101CDFF8180C02F052FADFF8401BA0
:1002F000DFF8440D02F04CFA3A003100200002F021
:1003000023F8F1BD70B5B6B004000D00160000A8CA
:1003100002F001F8002804D1DFF8E80B02F038FA07
:1003200023E00DF13F01DFF8E00B02F031FA0DF1AF
:100330007F01DFF8080D02F02BFA0DF18901DFF8DB
:10034000000D02F025FA20220DF13F01200002F0FD
:100350004FFF0A220DF17F01280002F049FF0A2217
:100360000DF18901300002F043FF36B070BDF0B5E9
:10037000B5B004000D0016001F0000A801F09BFF9F
:10038000002828D000A9DFF8BC0C02F001FA05A96A
:10039000DFF8B40C02F0FCF90DF11E01DFF8AC0C33
:1003A00002F0F6F99DF83E10DFF8780D02F0F0F952
:1003B000142200A9200002F01BFF0A2205A9280030
:1003C00002F016FF20220DF11E01300002F010FF96
:1003D0009DF83E00387035B0F0BD80B501F025FFC6
:1003E00002BD80B501F038FF02BD80B5C0B201F09A
:1003F000C4FE01BD30B58DB004000D0000A802F0B0
:100400003BF8002801D1002012E09DF800000128EF
:100410000DD120220DF10101200002F0E9FE102291
:100420000DF12101280002F0E3FE012000E0002090
:100430000DB030BD70B58EB004000D00160000A8E0
:1004400002F0A6F8002801D100201DE09DF8000070
:10045000012817D001A9DFF8D00C02F099F90C9906
:10046000DFF8240D02F094F90B99DFF86C0D02F01F
:100470008FF9212201A9200002F0BAFE0C98286011
:100480000B9830609DF800000EB070BD80B5022062
:1004900002F032F801BDDFF8440D0078002801D0E9
:1004A000012000E00020704780B5012002F024F810
:1004B00001BDDFF8280D0078002801D1012000E0FF
:1004C0000020704780B589B202F08AF801BD10B5EE
:1004D000C0B04C1C40F20111A4B28C4201D34FF4C5
:1004E000807432218DF80010A4B2621E01000DF15B
:1004F000010002F0B3FE210089B200A8FFF7E2FF7D
:1005000040B010BDDFF8782D1070DFF8740D007862
:1005100001280AD1142904D2DFF8640D14214160A6
:100520000BE0DFF85C0D416007E0DFF8540D0021BF
:100530004160DFF84C0D002181607047F0B5060086
:100540000F0014000020DFF8881D00250022150090
:1005500004E032003B0002F095FE6D1CA542F8DB82
:10056000F0BD002000210FE0DFF8682D52F82120B7
:10057000D278002A06D0DFF85C2D52F82120D278FC
:10058000022A00D1401C491CDFF84C2D1268914210
:1005900009DADFF8402D52F82120128843F6017362
:1005A0009A42E1D3EFE7C0B27047002100E0491C56
:1005B000DFF8242D1268914209DADFF8742D52F821
:1005C0002120128880B28242F1D1080001E05FF060
:1005D000FF307047002000E0401CDFF8FC1C096879
:1005E000884208DADFF8481D51F8201009790029FF
:1005F000F2D0012000E000207047DFF8DC0C00683A
:10060000C0B2704700200DE0DFF8C81C51F8201080
:100610000979002905D0DFF8BC1C51F82010002210
:100620000A71401CDFF8B01C09688842ECDB704797
:10063000DFF84C0C00787047F8B504000F00150087
:100640001E00402003F012FDA4B2DFF8E41C41F8C4
:100650002400A4B2DFF8D80C50F824000780A4B21C
:10066000DFF8CC0C50F824008570A4B2DFF8C00C81
:1006700050F82400C670A4B2DFF8B40C50F824007F
:1006800000210171A4B2DFF8A80C50F82400002169
:100690004171F1BD70B504000D001600200080B25C
:1006A000FFF783FF10F1010F1AD12B00DBB20022FC
:1006B000210089B2DFF8200C006880B2FFF7BCFF90
:1006C000DFF8140C0068DFF80C1C51F8200080F8EB
:1006D0002060DFF8040C0068401CDFF8FC1B086099
:1006E00070BD2DE9F84F04000D0016001F0020001A
:1006F00080B2FFF75AFF10F1010F60D12B00DBB27F
:100700000122210089B2DFF8D00B006880B2FFF728
:1007100093FFDDE90E89C246CB46DDE90A45504626
:10072000594632003B0004F065F802D2B246BB469F
:1007300008E02000290052465B4604F05BF801D235
:10074000A246AB46DDF830A0BAF1000F0CD140460E
:10075000494604F067F8DFF8801B0968DFF8742B5E
:1007600052F82110486208E0DFF86C0B0068DFF8EF
:10077000641B51F82000C0E90A89DFF85C0B0068AF
:10078000DFF8501B51F82000C0E90267DFF8480B82
:100790000068DFF8401B51F82000C0E90445DFF88D
:1007A000380B0068DFF82C1B51F82000C0F818A0A7
:1007B000DFF8240B0068401CDFF81C1B0860BDE854
:1007C000F18F70B504000D001600200080B2FFF715
:1007D000ECFE10F1010F1CD1002E00D500262B00DD
:1007E000DBB20222210089B2DFF8EC0A006880B295
:1007F000FFF722FFDFF8E00A0068DFF8D81A51F8A7
:1008000020000663DFF8D00A0068401CDFF8C81A31
:10081000086070BD70B505000E001400280080B29D
:10082000FFF7C3FE10F1010F2ED13300DBB203221C
:10083000290089B2DFF8A00A006880B2FFF7FCFE49
:10084000200002F02FF8401C03F010FCDFF8881A9B
:100850000968DFF8802A52F821104863200002F06E
:1008600021F8421C2100DFF8700A0068DFF8643AC2
:1008700053F82000406B02F0BBFCDFF85C0A006814
:10088000401CDFF8541A086070BDF8B506000F0070
:1008900014001D00300080B2FFF787FE10F1010F39
:1008A0003AD13B00DBB20422310089B2DFF8280ADA
:1008B000006880B2FFF7C0FEADB2280003F0D6FB9F
:1008C000DFF8141A0968DFF80C2A52F8211088633F
:1008D00000200CE0C0B2DFF8001A0968DFF8F42944
:1008E00052F82110896BC0B2025D4254401C0100D5
:1008F000C9B289B2ADB2A942ECD3DFF8DC09006815
:10090000DFF8D01951F820008587DFF8CC0900689E
:10091000401CDFF8C4190860F1BD10B50C0080B2AE
:10092000FFF743FE010011F1010F01D1022012E097
:10093000DFF8FC0950F8210090F820002070DFF863
:10094000F00950F821004079DFF8E42952F821102D
:1009500000224A71C0B210BD10B50C0080B2FFF782
:1009600024FE010011F1010F01D1022011E0DFF896
:10097000C00950F82100406A2060DFF8B40950F83F
:1009800021004079DFF8A82952F8211000224A718D
:10099000C0B210BD10B50C0080B2FFF706FE01001A
:1009A00011F1010F01D1022013E0DFF8840950F8A2
:1009B0002100D0E90A23C4E90023DFF8740950F8C4
:1009C00021004079DFF8682952F8211000224A718D
:1009D000C0B210BD10B50C0080B2FFF7E6FD0100FB
:1009E00011F1010F01D1022011E0DFF8440950F8A4
:1009F0002100006B2060DFF8380950F821004079B1
:100A0000DFF82C2952F8211000224A71C0B210BD23
:100A100070B50C0080B2FFF7C8FD050015F1010F9D
:100A200001D1022021E0002609E0B6B2DFF800097A
:100A300050F82500406B305CB6B23055761CDFF8BC
:100A4000F00850F82500406B01F02CFFB6B286424A
:100A5000EBD3DFF8DC0850F825004079DFF8D01838
:100A600051F8251000224A71C0B270BD70B50C005B
:100A700015002E8880B2FFF798FD010011F1010FDB
:100A800001D1022029E0DFF8A80850F82100808F6A
:100A9000B6B2864204D3DFF8980850F82100868F5A
:100AA000002009E080B2DFF8882852F82120926BFC
:100AB000825C80B20255401C80B2B6B2B042F1D323
:100AC0002E80DFF86C0850F821004079DFF86028AC
:100AD00052F8211000224A71C0B270BD38B50C0026
:100AE000150080B2FFF761FD10F1010F48D0DFF86B
:100AF000401851F820108978002941D1DFF83018CA
:100B000051F8201091F82010E4B2A1421CD0DFF877
:100B1000201851F8201001220A71EDB2002D06D0E4
:100B2000DFF80C1851F8201000224A7105E0DFF8B8
:100B3000001851F8201001224A71DFF8F41751F81B
:100B4000200080F820401BE0EDB2002D0CD0DFF833
:100B5000E01751F8201000220A71DFF8D41751F87D
:100B60002000002141710BE0DFF8C41751F820107C
:100B700001220A71DFF8B81751F8200001214171F4
:100B800031BD80B50122C9B280B2FFF7A7FF01BD18
:100B9000F8B50D00160080B2FFF707FD070017F14A
:100BA000010F7BD0DFF8880750F8270080780128F4
:100BB00006D1DFF87C0750F827008069002800D0B4
:100BC0006CE02C00200003F059FEDFF8642752F897
:100BD00027C0DCE9022303F00DFE09D2DFF850073D
:100BE00050F82720D2E9020103F01CFE040016E0B1
:100BF000200003F043FE02000B00DFF8340750F83A
:100C000027C0DCE9040103F0F5FD08D2DFF8200776
:100C100050F82720D2E9040103F004FE0400DFF8B5
:100C2000100750F82700406AA8421BD0DFF80007E1
:100C300050F8270001210171F6B2002E06D0DFF82E
:100C4000F00650F827000021417105E0DFF8E006CA
:100C500050F8270001214171DFF8D40650F8270031
:100C600044621BE0F6B2002E0CD0DFF8C40650F848
:100C7000270000210171DFF8B80650F82700002195
:100C800041710BE0DFF8A80650F82700012101713F
:100C9000DFF89C0650F8270001214171F1BD0000EA
:100CA0004C2100200C2100204B21002080B5012286
:100CB00080B2FFF76DFF01BD2DE9F04114001D006A
:100CC00080B2FFF772FC060016F1010F00F0A2805F
:100CD000DFF85C0650F826008078012806D1DFF89E
:100CE000500650F826008069002800D192E02000CC
:100CF0002900DFF83C2652F82670D7E9022303F0DA
:100D000079FD06D2DFF8280650F82600D0E9024522
:100D100010E0DFF81C0650F82620D2E9040122007A
:100D20002B0003F067FD05D2DFF8040650F826001B
:100D3000D0E90445DFF8F80550F826008269002064
:100D4000DFF8501CFFF7FAFB02000B00200029001F
:100D500002F098FA03F066FD0700DDF81880DFF86E
:100D6000D00550F82600D0E90A232000290003F01E
:100D70009DFD31D0DFF8B80550F826000121017142
:100D80005FFA88F8B8F1000F06D0DFF8A40550F834
:100D900026000021417105E0DFF8940550F8260097
:100DA00001214171DFF8880550F826008269002092
:100DB000DFF8E01BFFF7C2FB04000D00380003F072
:100DC0005DFD22002B0003F081FDDFF8642552F861
:100DD0002620C2E90A011DE05FFA88F8B8F1000F89
:100DE0000CD0DFF84C0550F8260000210171DFF827
:100DF000400550F82600002141710BE0DFF8300576
:100E000050F8260001210171DFF8240550F8260072
:100E100001214171BDE8F081C1000020DCAD000876
:100E20004D210020F4AD00080CAE0008C8AF00084A
:100E30000C20002078B2000880B50121009180B21A
:100E4000FFF73AFF01BD38B50C00150080B2FFF77F
:100E5000ACFB10F1010F45D0DFF8D41451F820108D
:100E6000897802293ED1DFF8C81451F82010096BA7
:100E7000A1421BD0DFF8B81451F8201001220A71EA
:100E8000EDB2002D06D0DFF8A81451F82010002292
:100E90004A7105E0DFF8981451F8201001224A71D8
:100EA000DFF88C1451F8200004631BE0EDB2002D34
:100EB0000CD0DFF87C1451F8201000220A71DFF802
:100EC000701451F82000002141710BE0DFF860142C
:100ED00051F8201001220A71DFF8541451F8200053
:100EE0000121417131BD0000B8AF000858B10008C0
:100EF000D8AF00089820002044AC0008082100204A
:100F0000E8AF000860AC0008E4AE000880B501223C
:100F100080B2FFF798FF01BD70B50C00160080B2DB
:100F2000FFF743FB050015F1010F00F08380DFF8A8
:100F3000000450F82500807803287BD12100DFF8D9
:100F4000F00350F82500406B03F0E4FD002859D071
:100F5000DFF8440A01F01CFCDFF8D40350F8250048
:100F6000416BDFF8380A01F013FC2100DFF8300A8A
:100F700001F00EFCDFF8B80350F8250001210171E3
:100F8000F6B2002E06D0DFF8A80350F825000021A5
:100F9000417105E0DFF8980350F825000121417107
:100FA000DFF88C0350F82500406B00280CD0DFF8E8
:100FB000800350F82500406B03F0A4F9DFF87003BC
:100FC00050F8250000214163200001F06BFC401C1B
:100FD00003F04CF8D64951F825104863200001F081
:100FE00061FC421C2100D24850F82500406B02F001
:100FF000FFF8CF4850F82500416BDFF8A80901F051
:10100000C7FB17E0F6B2002E0AD0C94850F82500F9
:1010100000210171C64850F825000021417109E006
:10102000C34850F8250001210171C14850F825003E
:101030000121417170BD0000D0AE0008F8AF00087A
:1010400008B00008F8AE00080CAF000818B000089F
:1010500080B5012280B2FFF75FFF01BDF8B50C003B
:1010600015001F0080B2FFF7A0FA060016F1010F6D
:1010700057D0AF4850F826008078042851D1ADB23F
:101080002A002100AA4850F82600806B03F064FD76
:1010900000282ED0A64850F8260001210171FFB289
:1010A000002F05D0A24850F826000021417104E02D
:1010B0009F4850F8260001214171ADB2280002F08E
:1010C000D5FF9B4951F826108863002008E080B2C4
:1010D000974951F82610896B80B2025D4254401C3A
:1010E00080B2ADB2A842F2D3914850F8260085876D
:1010F00017E0FFB2002F0AD08D4850F826000021DB
:1011000001718B4850F826000021417109E08848A0
:1011100050F8260001210171854850F82600012170
:101120004171F1BD28B0000864B1000880B5012309
:1011300092B280B2FFF792FF01BD70B505000E00BC
:10114000280080B2FFF731FA040014F1010F1AD021
:1011500001223100C9B2280080B2FFF7BFFCFFF7BF
:1011600067FA01280FD05B4850F82400C0780128A6
:1011700009D0584850F824000079002803D02000F6
:1011800080B200F06EFB70BD70B1000870B5050054
:101190000E00280080B2FFF708FA040014F1010FD6
:1011A00019D001223100280080B2FFF7F1FCFFF7CF
:1011B0003FFA01280FD0474850F82400C078012892
:1011C00009D0444850F824000079002803D02000BA
:1011D00080B200F046FB70BD7CB100084A210020BF
:1011E000F8B5070014001D00380080B2FFF7DDF9E4
:1011F000060016F1010F1BD00120009022002B00E9
:10120000380080B2FFF758FDFFF712FA01280FD01F
:10121000304850F82600C078012809D02D4850F8F1
:1012200026000079002803D0300080B200F019FBBE
:10123000F1BD70B505000E00280080B2FFF7B5F9CA
:10124000040014F1010F19D001223100280080B2EE
:10125000FFF7F9FDFFF7ECF901280FD01D4850F812
:101260002400C078012809D01A4850F824000079D9
:10127000002803D0200080B200F0F3FA70BD000017
:10128000A800002070B505000E00280080B2FFF70E
:101290008CF9040014F1010F19D00122310028004B
:1012A00080B2FFF739FEFFF7C3F901280FD00948D4
:1012B00050F82400C078012809D0064850F82400CE
:1012C0000079002803D0200080B200F0CAFA70BD77
:1012D0000000F03F781E002004210020F8B5050032
:1012E0000E001700280080B2FFF75FF9040014F128
:1012F000010F1BD001233A0092B23100280080B2C6
:10130000FFF7ACFEFFF794F901280FD0084850F81A
:101310002400C078012809D0054850F8240000793D
:10132000002803D0200080B200F09BFAF1BD00003D
:10133000781E00202DE9F24F82B0040090460299F9
:10134000DFF8640601F024FADFF8600601F020FA05
:10135000029989B2200001F049FA002500260027F1
:101360002078322803D1322088F8000052E1312061
:1013700088F800006D1C0EE00027300080B2FFF7F7
:1013800014F910F1010F06D000223900C9B2300063
:1013900080B2FFF7A3FB0298854280F02A812E5D80
:1013A0006D1CB6B2802E05D316F07F06285D50EA7C
:1013B00006266D1C285D6D1CC0B2002809D00228CD
:1013C00000F091800ED3042800F0F580C0F0C180B9
:1013D0000EE12F5D6D1C2800451C005D0028CBD060
:1013E0000127CAE72F5D6D1C15F804806D1CBFB284
:1013F000022F04D1285D50EA08286D1C1AE0BFB204
:10140000032F08D1285D50EA08286D1C285D50EA9A
:1014100008286D1C0EE0BFB2042F0BD1285D50EAE6
:1014200008286D1C285D50EA08286D1C285D50EACC
:1014300008286D1C300080B2FFF7B7F80700FFB234
:10144000DFF86C0550F82700806900281CD1404661
:1014500003F014FAFFB2DFF8582552F82770D7E9E5
:10146000022303F0ABFB03F0DDF98046300080B2CD
:10147000FFF79BF810F1010F34D0002241463000F5
:1014800080B2FFF785FB2DE0FFB2DFF8240550F8AE
:10149000270082690020DFF8FC14FFF74FF882462E
:1014A0008B46404603F0EAF952465B4603F00EFADB
:1014B000FFB2DFF8FC2452F82770D7E9022303F0CB
:1014C0007DFB80468946300080B2FFF76EF810F150
:1014D000010F07D00020009042464B46300080B2FA
:1014E000FFF7EAFB57E72F5D6D1C15F804806D1CB4
:1014F000BFB2022F04D1285D50EA08286D1C1AE003
:10150000BFB2032F08D1285D50EA08286D1C285D62
:1015100050EA08286D1C0EE0BFB2042F0BD1285DE5
:1015200050EA08286D1C285D50EA08286D1C285DCB
:1015300050EA08286D1C300080B2FFF736F810F131
:10154000010F05D000224146300080B2FFF77BFC3E
:1015500021E72F5D6D1CBFB2802F05D317F07F07E9
:10156000285D50EA07276D1CBFB2781C02F07EFD93
:101570008046B8F1000F0BD0BFB27A1C0021404664
:1015800003F090FBBFB23A002919404601F066FE15
:10159000BFB27D19300080B2FFF707F810F1010FDC
:1015A00005D000224146300080B2FFF7B5FC40462E
:1015B00002F0A8FEEFE62F5D6D1CBFB2802F05D3B1
:1015C00017F07F07285D50EA07276D1C300080B2B6
:1015D000FEF7EBFF10F1010F07D000233A0092B2A3
:1015E0002919300080B2FFF739FDBFB27D19D2E66C
:1015F000D1E600208DF8000000A947F68170FFF7C2
:101600008CF9012806D1DFF8AC0301F0C1F8012004
:1016100000F04FF9BDE8F78F2DE9F84306000C0004
:101620000025DFF88C0350F826000088802807D2B8
:10163000DFF87C0350F82600008828556D1C10E068
:10164000DFF86C0350F82600008880B2000A50F0E2
:10165000800028556D1CD64850F826000088285573
:101660006D1CD34850F826008078002807D0022847
:1016700064D013D3042800F092806CD3B0E0002033
:1016800028556D1C012028556D1C2800451CC84993
:1016900051F8261091F820100155A1E0012028559D
:1016A0006D1CC34850F826008069002804D1C0484A
:1016B00050F82600406A1BE0BD4850F826008269B9
:1016C0000020B449FEF73AFF80468946B84850F8F2
:1016D0002620D2E90A01B64A52F82660D6E902234A
:1016E00003F0EAFA42464B4601F0CCFD03F09AF8CB
:1016F000010C090400290ED0042129556D1C011686
:1017000029556D1C011429556D1C011229556D1C9C
:1017100028556D1C11E0010A0902002908D0022198
:1017200029556D1C011229556D1C28556D1C04E0AE
:10173000012129556D1C28556D1C51E002202855AA
:101740006D1C012028556D1C994850F82600006B2F
:1017500028556D1C44E0964850F82600406B01F077
:10176000A1F80700032028556D1CBFB2802F02D2BC
:101770002F556D1C07E0BFB2380A50F08000285585
:101780006D1C2F556D1CBFB23A00894850F82600D9
:10179000416B281901F062FDBFB27D1920E0844839
:1017A00050F82600878F042028556D1CBFB2802F6B
:1017B00002D22F556D1C07E0BFB2380A50F08000EE
:1017C00028556D1C2F556D1CBFB23A00784850F853
:1017D0002600816B281901F041FDBFB27D19FFE79A
:1017E000280080B2BDE8F28310B500243122625493
:1017F000641C6118FFF710FF0419200080B210BDAF
:10180000F8B504001500002631203055761C00275D
:1018100011E0EDB2002D08D1EDB2002D0AD16448DF
:1018200050F827000079002804D031193800FFF75C
:10183000F3FE86197F1C6048006887420EDA5C4818
:1018400050F82700C0780128F4D0594850F82700F4
:10185000008843F601718842DBD3EBE7300080B2A9
:10186000F2BD30B5C1B0040000F05FFF0500534881
:101870008068281A002805D55FF0FF304F49896835
:10188000401A28184D4949684FF47A7251438842EA
:101890000DD34FF4807200A9A4B22000FFF7A4FF7B
:1018A000010089B200A8FEF70DFE4448856041B0F2
:1018B00030BD10B5ADF5007D0400FEF752FE0028E6
:1018C00019D02200D2B24FF4007100A8FFF798FFA0
:1018D0000400A4B221003A4800F05AFF394800F051
:1018E00057FF210089B200A800F080FF210089B2D3
:1018F00000A8FEF7E7FD0DF5007D10BD80B5FEF7F1
:101900007CFE00280CD0FEF72CFE002808D0FEF745
:101910008FFE012804D00120FFF7CBFFFEF772FEF7
:1019200001BD10B50024FEF768FE002831D0FEF797
:1019300018FE00282DD0FEF77BFE002829D0FEF7E8
:1019400049FE002804D001240020FFF7B2FF17E071
:1019500000F0EBFE19498968411A002905D55FF0AE
:10196000FF31164A9268891A4118144840684FF4AA
:101970007A725043814203D301240120FFF799FF7B
:10198000E4B2002C05D000F0D0FE0C498860FEF7D0
:1019900039FE10BD0000244020AF000838B0000818
:1019A00088B1000848B000087CAC000858B00008B6
:1019B000781E002034AF000804210020A800002079
:1019C00024AE000868B0000880B503F050FA02BDEC
:1019D00080B50821164803F0C9FA4FF4967003F059
:1019E0004FFA0821124803F0BEFA4FF4967003F044
:1019F00047FA01BD7047704701B5012100A803F007
:101A000040FC01BD80B540F225510A4803F046FD77
:101A1000002806D0074803F030FDC0B20649C96A65
:101A2000884701BD80B505484069804701BD000079
:101A3000000C0140004C004034AA00083CAE0008F5
:101A400051188268914201DB8068091A08007047CA
:101A500070B504000D001600002E01D0002006E035
:101A6000002D03D0280002F001FB00E000206060A0
:101A7000002020610020E060002E00D16668266012
:101A8000A56070BD80B500F007F8012801DB0120DA
:101A900000E00020C0B202BD0169C268891A0129B4
:101AA00001DA80684118481E704770B504000D00C7
:101AB000E0680600012201002000FFF7C1FF216954
:101AC0008842FCD021687554E0602800C0B270BD27
:101AD000C1680269891A002901D580684118080087
:101AE00070472DE9F04704000D0016001F00B046B6
:101AF0001BE0C84500DAC146D4F810A0A068B0EBDE
:101B00000A00484500DA81464A4620681AEB00017F
:101B1000280001F0A3FB4A4651462000FFF790FF42
:101B20002061B8EB090819EB0505B8F1000F0CD0DE
:101B30002000FFF7CDFF8146B9F1000FD9D1FFB2E8
:101B4000002FF5D1B6EB080001E0B6EB0800BDE8C8
:101B5000F08770B504000D002000FFF7B9FF060004
:101B6000AE4201DA3500FFE72A0021692000FFF7C5
:101B700067FF6061701B70BD38B504006169206843
:101B80000D5C01222000FFF75BFF60612800C0B2FE
:101B900032BD10B504002000C0B2FFF72DFF2000B9
:101BA00010BD70B504000D00002603E0305DFFF7A6
:101BB000F0FF761CAE42F9DB280070BD10B50400C2
:101BC000DFF8800AFFF75EFF002805D02100C9B2C8
:101BD000DFF8700AFFF769FF10BDDFF86C0A01211A
:101BE00001707047DFF8600A00210170704780B50E
:101BF0000122FFF7D6FF02BD80B5FFF7F8FF02BD57
:101C00000EB400B5ADF5007DDFF83C1A0978002967
:101C100001D000200AE081AB02004FF4007100A85F
:101C200003F06EFC010000A8FFF7E6FF0DF5007D54
:101C30005DF810FB2DE9F04104000D0090461E00F8
:101C40000027B8F1000F15D098F80000002811D037
:101C50007F1CBD4202DA5FF0FF303AE02000FFF760
:101C60008BFF414611F101080978C0B28142EBD0E7
:101C700000202EE0002E01D138002AE07F1CBD425A
:101C800002DA5FF0FF3024E02000FFF775FF5FF01D
:101C9000000801E018F1010818F80600002817D024
:101CA0007F1CBD4202DA5FF0FF3012E02000FFF738
:101CB00063FF18F80610C0B28142EBD03178C0B291
:101CC000814202D15FF00108E6E75FF00008E3E738
:101CD0003800BDE8F0812DE9F04104000D00904688
:101CE00000260027B8F1000F02D13000BDE8F081D6
:101CF00098F800000028F8D0761CB54202DA5FF0B0
:101D0000FF30F3E72000FFF737FF98F80010252990
:101D100065D118F1010898F80010642910D118F164
:101D2000010802E02000FFF727FFB0F13001C9B23F
:101D30000A2954D2761CB542F4DA5FF0FF30D5E7B9
:101D400098F800106E2917D118F10108002702E059
:101D50002000FFF711FFB0F13001C9B20A293ED2CD
:101D60000A21C0B201FB0700B0F13007761CB54272
:101D7000EEDA5FF0FF30B9E798F8001063290ED172
:101D800018F1010802E02000FFF7F6FE7F1E002F89
:101D9000AED0761CB542F6DA5FF0FF30A6E798F8D1
:101DA000001073291BD118F10108C0B2222801D0FC
:101DB00000209BE7761CB54202DA5FF0FF3095E722
:101DC0002000FFF7D9FEC0B22228F3D1761CB5421D
:101DD00002DA5FF0FF3089E72000FFF7CDFE4146D1
:101DE00011F101080978C0B281423FF481AF0020AF
:101DF0007CE72DE9F84304000D0090460027200001
:101E0000FFF766FE81462000FFF746FE0600C1454B
:101E100004DAC84602E07F1CB8F10108B8F1010FEE
:101E200074DB5FF0000901E019F10109B9F1010F5C
:101E30002DDA39002000FFF78CFEDFF8100850F88B
:101E4000392041462000FFF746FF020012F1010F42
:101E500004D1002E02D05FF0FF305DE0002A08D0F0
:101E6000012F06DB00233A0029002000FFF739FE8E
:101E700052E0012AD8DBDFF8D40710EBC90046682E
:101E8000002329002000FFF72CFE304344E05FF0E0
:101E9000000901E019F10109B9F1060FBBDA3900B7
:101EA0002000FFF756FE0C20DFF8A41700FB0910F6
:101EB00043680C20DFF8981700FB091002684146C0
:101EC0002000FFF7B7FE10F1010F04D1002E02D061
:101ED0005FF0FF3020E0002808D0012F06DB002350
:101EE0003A0029002000FFF7FCFD15E00128D1DBB6
:101EF0000C21DFF85C2701FB09218E68002302001A
:101F000029002000FFF7EDFD304305E000233A00F3
:101F100029002000FFF7E5FDBDE8F28380B50A0047
:101F20000100DFF82007FFF764FF02BD2DE9F04F45
:101F3000ADF5197D04000D001600DFF80C070078E0
:101F4000002802D05FF0FF3013E118A84FF40071B1
:101F500000F07AFC00F0E9FB07004FF4007118A8CC
:101F6000FFF7DCFF804618F1010F00F0F180B8F1B7
:101F7000000F00F0ED8018F47F09B9F5800F40F0F4
:101F8000BD800DF1610A5146DFF8C80600F000FC83
:101F900007AADFF8C416504603F0D0FA01281FD173
:101FA0000798012806D011D3032809D005D30428A7
:101FB00009D00BE05FF0010B08E05FF0020B05E0D9
:101FC0005FF0030B02E05FF0040BFFE70023002249
:101FD00059460120DFF884C6DCF800C0E0478DE0F8
:101FE00007AADFF87C16504603F0A8FA012850D162
:101FF0000798012806D021D3032811D009D304283B
:1020000015D01BE001200690DFF858060021017072
:1020100014E002200690DFF84C06012101700DE06B
:1020200003200690DFF840060021017006E004203E
:102030000690DFF8340601210170FFE706980228B8
:102040001DDB16A8049008A8039009A802900AA80E
:1020500001900BA800900CAB06AADFF810165046B2
:1020600003F06CFA07280AD10B980A99090451EA7F
:102070000060099950EA012008990843179000234D
:10208000002206990220DFF8D4C5DCF800C0E04742
:1020900034E005AADFF8D815504603F04FFA0128BE
:1020A0002CD13A2118A803F05BFA8246BDF814300F
:1020B000524601210320DFF8A4C5DCF800C0E04748
:1020C000BDF814101AF1010000F07FFAC0B23228F6
:1020D0000BD1BDF814301AF1010203210320DFF8FF
:1020E0007CC5DCF800C0E04708E0002300220221A4
:1020F0000320DFF868C5DCF800C0E04720000028B6
:1021000008D01FFA88F22B0018A94846A04710F102
:10211000010F2ED1B9F5881F02D17FF0010028E010
:10212000B9F5981F02D17FF0030022E0B9F5901FA6
:1021300002D17FF002001CE0B9F5401F02D17FF010
:10214000040016E0B9F5C00F02D17FF0050010E0E1
:102150007FF00040864204D000F0E7FAC01B8642C0
:1021600005D3DFF8E404007800283FF4F6AE5FF012
:10217000FF300DF5197DBDE8F08F80B5C0B2FFF7D7
:102180001DFD01BD70B500224FF48071DFF8B4046D
:10219000FFF75EFCDFF8DC040078002843D1DFF8AD
:1021A000A80400210170002400250A2606E0002E64
:1021B00004D1EDB2002D01D101250A263000461EC2
:1021C000002814D0DFF880040078002802D0012411
:1021D000FFF708FDDFF8A004FFF712FD4FF47A7255
:1021E00000210020FFF7A2FE10F1020FDFD1002E28
:1021F00004D50124DFF8840400F0CAFAE4B2002C0C
:1022000003D0FFF7EAFC00200EE0DFF87404FFF7CC
:10221000F7FCDFF8700400F0BBFADFF85804012186
:102220000170012000E0012070BD80B5DFF844049A
:10223000007800280ED0DFF85004FFF7E1FC41F2EF
:10224000883200210020FFF771FE10F1020F01D14A
:10225000012000E0002002BD80B5DFF818040078FE
:1022600000280ED0DFF82404FFF7CAFC41F28832C0
:1022700000210020FFF75AFE10F1020F01D10120CA
:1022800000E0002002BD1CB5040008001A00002A6E
:102290000ED0B4F5800F0BD112F13E01019112F175
:1022A0001E01009112F11403DFF8E41303F046F964
:1022B0005FF0FF3016BD10B50400DFF8B8030078FA
:1022C00000280FD0DFF8CC03FFF79AFC41F28832E8
:1022D0002100DFF8C403FFF729FE10F1020F01D13E
:1022E000012000E0002010BD80B5020008001900A8
:1022F00000290DD0B2F5800F0AD111F189020092A8
:1023000011F17F0311F13F02DFF8901303F016F98A
:102310005FF0FF3002BD10B50400DFF8580300780D
:1023200000280FD0DFF87803FFF76AFC41F288320B
:102330002100DFF87003FFF7F9FD10F1020F01D162
:10234000012000E0002010BD80B5DFF828331B78A5
:10235000002B11D013000A000100DFF84C03FFF737
:102360004FFC41F2883200210020FFF7DFFD10F121
:10237000020F01D1012000E0002002BD80B5DFF88E
:10238000F4221278002A10D00A000100DFF81C03A2
:10239000FFF736FC41F2883200210020FFF7C6FD2E
:1023A00010F1020F01D1012000E0002002BD38B57C
:1023B0000C001D00002D0CD0B0F5800F09D100AA33
:1023C000DFF8EC12200003F0B9F8012801D10098E1
:1023D00028605FF0FF3032BD80B500200090DFF84C
:1023E0009402007800280AD0DFF8C802FFF708FC42
:1023F00041F2883200A9DFF8C002FFF797FD00988C
:1024000002BD80B55FF0FF3200929A4A1278002A2E
:102410000DD00A00C0B20100DFF8A002FFF7F0FB08
:1024200041F2883200A9DFF89002FFF77FFD0099A2
:10243000DFF88C0200F0ACF9009802BD38B50C0052
:102440001D00002D15D0B0F5800F12D12A009D4936
:10245000200003F073F801280BD12878012808D157
:1024600015F1210000906B1C2A009749200003F011
:1024700065F85FF0FF3032BD10B504007D4800788C
:1024800000280DD09148FFF7BBFB41F288322100B4
:102490008F48FFF74BFD10F1020F01D1012000E042
:1024A000002010BD38B50C001D00002D0BD0B0F57C
:1024B000800F08D100AA8749200003F03FF80128C7
:1024C00001D1009828605FF0FF3032BD80B55FF029
:1024D000FF330093674B1B78002B0BD013000A00CF
:1024E00001007D48FFF78CFB41F2883200A97B4850
:1024F000FFF71CFD009802BD80B55E4909780029F0
:102500000FD0C0B201007648FFF77AFB41F2883263
:1025100000210020FFF70AFD10F1020F01D1012078
:1025200000E0002002BD30B589B00D001C00002C79
:102530002AD0B0F5800F27D122006A49280002F086
:10254000FDFF012820D1207801281DD014F12C0096
:10255000049005A8039006A8029007A8019008A877
:102560000090231D22006049280002F0E7FF0728A1
:102570000AD108980799090451EA0060069950EABF
:1025800001200599084320635FF0FF3009B030BD9A
:1025900010B504003748007800280DD05348FFF7E5
:1025A0002FFB41F2883221005148FFF7BFFC10F1A8
:1025B000020F01D1012000E0002010BD80B50022F3
:1025C00000210020FFF7B2FC01BD80B500228DF88C
:1025D000002000AA89B2FEF7ADFE9DF8000002BD02
:1025E00038B504000D0023480078002827D0ADB28C
:1025F00029004048FFF704FB41F288320021002007
:10260000FFF794FC10F1020F19D141F2883200213A
:102610000020FFF78BFC10F1050F10D10022ADB2A6
:1026200029002000FFF7BDFA41F288320021002086
:10263000FFF77CFC10F1020F01D1012000E0002027
:1026400032BD0000502000204F210020B4000020A7
:1026500050000020D0B1000888B0000808210020F8
:10266000DCB100084B2100204A2100206CAA0008A0
:10267000E8B100084E210020A0B2000898AC000884
:10268000A8B20008B4AC0008F4B1000898B0000883
:1026900034AB000800B200088722000858AB0008DD
:1026A000A8B00008E9220008D0AC000854AE000829
:1026B0000CB2000818B20008AF230008B8B0000838
:1026C00048AF000824B20008C4AB0008C8B0000836
:1026D0003D240008D8B00008E4AB0008A524000899
:1026E000E8B0000830B2000894AA0008F8B000086A
:1026F000272500085CAF000838B50400FFF764F92F
:10270000050000200021002C02D10DE0FDF7B4FDF2
:10271000FFF75AF9A84204D25FF0FF31491B411874
:1027200000E0411B8C42F1D231BD80B5FFF74CF97E
:1027300002BD80B5FFF7F9FF02BD38B504000D00FA
:10274000FFF7F3FF0021A04204D25FF0FF31091B25
:10275000411800E0011BA94201D3012000E0002044
:1027600032BD10B450F8041B81B102681218001D6C
:1027700050F8043BDC0744BFA9F10104E31852F808
:10278000044B43F8044B091FF9D1EBE710BC704729
:102790000EB470B5ADF5017D040085ADFFF7C5FF42
:1027A0000300264A4FF4007100A802F0E5FE06007F
:1027B000310089B200A8FFF71DF92B0022004FF469
:1027C000007100A802F09CFE0600310089B200A84A
:1027D000FFF710F9B6F5007F03D9032116A0FFF724
:1027E00009F90DF5017D70BC5DF810FB7CB50400A6
:1027F0000D000026ADB2012D1DD300260EE00822EB
:10280000002100A802F04EFA325D0D4900A800F048
:102810002FF8082100A8FFF7EDF8761CADB2681E6E
:102820008642ECDB325D074900A800F021F8082160
:1028300000A8FFF7DFF873BD2E2E2E0094B100081C
:1028400080B2000888B20008002202F0B7BE50F83B
:10285000041B61B150F8042BD30744BFA9F1010355
:102860009A18002342F8043B091FFAD1EFE770479A
:102870000CB41CB5044604A80190009401AB0A46B0
:1028800000A907487844183002F0B2FE00990022EF
:102890000A7000285CBF0098001B16BC5DF80CFB9A
:1028A000870B000000F10103810704D010F8011B21
:1028B00089B18107FAD10268B2F10131914311F077
:1028C000803F04BF50F8042FF6E710F8011B11B148
:1028D00010F8011BFBE7C01A704703681AB95A1EAB
:1028E000026008467047197811B94FF0FF30704701
:1028F000591C01601878704780B510220021DFF85C
:10290000D00702F0CFF9DFF8CC0700F046F801BDA0
:1029100080B589B20A000100DFF8B80700F04EF870
:1029200001BD80B5DFF8AC17DFF8A40700F088F828
:1029300001BD70B58AB004000D001600FFF7DCFF82
:10294000290089B22000FFF7E3FFFFF7EAFF002428
:102950000CE0E4B2DFF87807225CDFF87C17E4B221
:1029600000A810EB4400FFF783FF641CE4B2102CB6
:10297000EFD31021DFF85807FFF738FF00A9DFF881
:102980005C07FFF705FF00A8FFF78CFF020000A916
:10299000300000F063FC0AB070BDDFF8441701603E
:1029A000DFF840174160DFF840178160DFF83C171F
:1029B000C16000210161002141617047F8B5040048
:1029C0000D001600276917EBC6002061B84202D23D
:1029D0006069401C6061606910EB56706061C7F30C
:1029E000C507002F23D038191830D7F14007BE4251
:1029F00004D23200290000F031FC20E03A00290026
:102A000000F02CFC14F11801200000F04FF87D19A3
:102A1000F61B0CE04022290014F1180000F01EFC07
:102A200014F11801200000F041F84035403E402EDE
:102A3000F0D23200290014F1180000F00FFCF1BDB3
:102A400038B504000D002869C0F3C50250191830CC
:102A500080210170401CD2F13F02082A0ED20021D1
:102A600002F020F915F11801280000F01FF83822B3
:102A7000002115F1180002F015F903E0083A0021D1
:102A800002F010F9286928656869686515F1180170
:102A9000280000F00BF810222900200000F0DEFBD7
:102AA00058220021280002F0FDF831BDF0B404687E
:102AB00042688368C56895EA030616406E400F6851
:102AC000BE19DFF82C76BE1934195FEA7464141944
:102AD00093EA020626405E404F68BE19DFF814767E
:102AE000BE1975195FEA3555651992EA04062E403C
:102AF00056408F68BE19DFF80076BE19F3185FEAFA
:102B0000F333EB1894EA05061E406640CF68BE1901
:102B1000DFF8E875BE19B2185FEAB2229A1895EA92
:102B2000030616406E400F69BE19DFF8D475BE1952
:102B300034195FEA7464141993EA020626405E4071
:102B40004F69BE19DFF8BC75BE1975195FEA3555B6
:102B5000651992EA04062E4056408F69BE19DFF8C7
:102B6000A875BE19F3185FEAF333EB1894EA05066B
:102B70001E406640CF69BE19DFF89075BE19B218C5
:102B80005FEAB2229A1895EA030616406E400F6A71
:102B9000BE19DFF87C75BE1934195FEA7464141924
:102BA00093EA020626405E404F6ABE19DFF864755C
:102BB000BE1975195FEA3555651992EA04062E406B
:102BC00056408F6ABE19DFF85075BE19F3185FEAD8
:102BD000F333EB1894EA05061E406640CF6ABE192F
:102BE000DFF83875BE19B2185FEAB2229A1895EA72
:102BF000030616406E400F6BBE19DFF82475BE1930
:102C000034195FEA7464141993EA020626405E40A0
:102C10004F6BBE19DFF80C75BE1975195FEA355593
:102C2000651992EA04062E4056408F6BBE19DFF8F4
:102C3000F874BE19F3185FEAF333EB1894EA05064B
:102C40001E406640CF6BBE19DFF8E074BE19B218A3
:102C50005FEAB2229A1893EA02062E405E404F685D
:102C6000BE19DFF8CC74BE1934195FEAF464141984
:102C700092EA04061E4056408F69BE19DFF8B4740C
:102C8000BE1975195FEAF555651994EA05061640EF
:102C90006640CF6ABE19DFF8A074BE19F3185FEA68
:102CA000B343EB1895EA030626406E400F68BE1941
:102CB000DFF88874BE19B2185FEA32329A1893EAC4
:102CC00002062E405E404F69BE19DFF87474BE19CB
:102CD00034195FEAF464141992EA04061E4056405F
:102CE0008F6ABE19DFF85C74BE1975195FEAF55575
:102CF000651994EA050616406640CF6BBE19DFF8E9
:102D00004874BE19F3185FEAB343EB1895EA03065B
:102D100026406E400F69BE19DFF83074BE19B21834
:102D20005FEA32329A1893EA02062E405E404F6AFA
:102D3000BE19DFF81C74BE1934195FEAF464141963
:102D400092EA04061E4056408F6BBE19DFF80474E9
:102D5000BE1975195FEAF555651994EA050616401E
:102D60006640CF68BE19DFF8F073BE19F3185FEA4A
:102D7000B343EB1895EA030626406E400F6ABE196E
:102D8000DFF8D873BE19B2185FEA32329A1893EAA4
:102D900002062E405E404F6BBE19DFF8C473BE19A9
:102DA00034195FEAF464141992EA04061E4056408E
:102DB0008F68BE19DFF8AC73BE1975195FEAF55557
:102DC000651994EA050616406640CF69BE19E64FBC
:102DD000BE19F3185FEAB343EB1895EA03062640E1
:102DE0006E400F6BBE19E14FBE19B2185FEA323266
:102DF0009A1893EA02066E404F69BE19DC4FBE195D
:102E000034195FEA3474141992EA04065E400F6ABA
:102E1000BE19D84FBE1975195FEA7555651994EA40
:102E200005065640CF6ABE19D34FBE19F3185FEAA4
:102E30003343EB1895EA030666408F6BBE19CF4FFC
:102E4000BE19B2185FEA72229A1893EA02066E401F
:102E50004F68BE19CA4FBE1934195FEA3474141989
:102E600092EA04065E400F69BE19C64FBE19751975
:102E70005FEA7555651994EA05065640CF69BE1993
:102E8000C14FBE19F3185FEA3343EB1895EA030606
:102E900066408F6ABE19BD4FBE19B2185FEA722232
:102EA0009A1893EA02066E404F6BBE19B84FBE19CE
:102EB00034195FEA3474141992EA04065E400F680C
:102EC000BE19B44FBE1975195FEA7555651994EAB4
:102ED00005065640CF68BE19AF4FBE19F3185FEA1A
:102EE0003343EB1895EA030666408F69BE19AB4F72
:102EF000BE19B2185FEA72229A1893EA02066E406F
:102F00004F6ABE19A64FBE1934195FEA34741419FA
:102F100092EA04065E400F6BBE19A24FBE197519E6
:102F20005FEA7555651994EA05065640CF6BBE19E0
:102F30009D4FBE19F3185FEA3343EB1895EA030679
:102F400066408F68BE19994FBE19B2185FEA7222A7
:102F50009A1872EA05065E400F68BE19944FBE19B2
:102F600034195FEAB464141974EA03065640CF6951
:102F7000BE19904FBE1975195FEAB555651975EA06
:102F8000020666408F6BBE198B4FBE19F3185FEABD
:102F90007343EB1873EA04066E404F69BE19874FFE
:102FA000BE19B2185FEAF2229A1872EA05065E406C
:102FB0000F6BBE19824FBE1934195FEAB46414193D
:102FC00074EA03065640CF68BE197E4FBE197519C4
:102FD0005FEAB555651975EA020666408F6ABE1943
:102FE000794FBE19F3185FEA7343EB1873EA0406CE
:102FF0006E404F68BE19754FBE19B2185FEAF222D3
:103000009A1872EA05065E400F6ABE19704FBE1923
:1030100034195FEAB464141974EA03065640CF6B9E
:10302000BE196C4FBE1975195FEAB555651975EA79
:10303000020666408F69BE19674FBE19F3185FEA32
:103040007343EB1873EA04066E404F6BBE19634F6F
:10305000BE19B2185FEAF2229A1872EA05065E40BB
:103060000F69BE195E4FBE1934195FEAB4641419B2
:1030700074EA03065640CF6ABE195A4FBE19751935
:103080005FEAB555651975EA020666408F68BE1994
:10309000554FBE19F3185FEA7343EB1873EA040641
:1030A0006E40496A8919514E71188A185FEAF222F6
:1030B0009A1801686118016041685118416081687F
:1030C00059188160C1686918C160F0BC7047000080
:1030D000BC200020B41F002090B20008A0B100085E
:1030E0000123456789ABCDEFFEDCBA9876543210E8
:1030F00078A46AD756B7C7E8DB702024EECEBDC1EE
:10310000AF0F7CF52AC68747134630A8019546FDC8
:10311000D8988069AFF7448BB15BFFFFBED75C895D
:103120002211906B937198FD8E4379A62108B449C2
:1031300062251EF640B340C0515A5E26AAC7B6E9C2
:103140005D102FD65314440281E6A1D8C8FBD3E703
:10315000E6CDE121D60737C3870DD5F4ED145A45E6
:1031600005E9E3A9F8A3EFFCD9026F678A4C2A8D21
:103170004239FAFF81F6718722619D6D0C38E5FDB9
:1031800044EABEA4A9CFDE4B604BBBF670BCBFBE09
:10319000C67E9B28FA27A1EA8530EFD4051D880456
:1031A00039D0D4D9E599DBE6F87CA21F6556ACC4CA
:1031B000442229F497FF2A43A72394AB39A093FC18
:1031C000C3595B6592CC0C8F7DF4EFFFD15D848594
:1031D0004F7EA86FE0E62CFE144301A3A111084E18
:1031E000827E53F735F23ABDBBD2D72A91D386EB14
:1031F00001B58B0718D1121F21D351F8043BA3F15D
:10320000013C2CEA030C1CF0803C04BF40F8043B5A
:10321000F1E79CFA8CFCBCFA8CF1C1F118018B40EF
:10322000CB4040F8043B13E0042A09D311F8013BDA
:10323000521E00F8013B5BB18B07F7D1DBE7121D93
:103240005AB111F8013B521E00F8013B03B1F8D10D
:1032500011001CBF002203F0FDF901BD10B50400F0
:10326000200003F027FA200010BD8268521C826003
:10327000426832B10268531C036011704168491EF4
:1032800041607047B0B581EA030C0CF0004C40F28D
:10329000FF7515EA11541DBF15EA1357AC42AF4232
:1032A00039E0E41923EA455343F48013C90241F09D
:1032B000004141EA505EC7021100A7FB020200284C
:1032C0004FF00000EEFB01204FF00001E3FB07216F
:1032D00018BF42F00102401800214941E3FB0E01F2
:1032E000A4F580640F0302D252004041494154F1D9
:1032F00001046CDD470872F1004250F1000051EB0F
:103300000451A1F580115CBF41EA0C01B0BD4CEA4B
:1033100005510020B0BD05EA1357AC4214BFAF42BF
:1033200041E050EA410E1CBF52EA430E02E0614602
:103330000020B0BD24423C441BD15FEA070EF6D00A
:10334000090302BF01460020AEF1140EB1FA81F765
:10335000AEEB070401FA07FE0C37C7F1200100FAB3
:1033600007F7C8404EEA000E23EA455343F48013A2
:10337000A2E733F00043B3FA83F704BFB2FA82FE48
:1033800077440B3FE41BB7F1200E2FBF02FA0EF378
:10339000BB40C7F1200E22FA0EFE38BF43EA0E03EF
:1033A000BA40641C82E750EA410E14BF52EA430E51
:1033B0006FF000014FF4001717EB430F8ABF194657
:1033C00017EB410FB5E74CEA05510020B0BDD4F131
:1033D0000104B4F120070FDAC4F12007520828BF16
:1033E00042F0010210FA07F501FA07F7E1BF2A439C
:1033F000E0403843E1400FE0352C98DCC7F1200471
:1034000052EA400220FA07F218BF42F0010231FAF4
:1034100007F0A1400A43002172F1004250F1000080
:1034200051EB0C01B0BD0268531C03601170704772
:10343000DFF82C0C016899B94FF4803181604FF4AA
:10344000805141604FF0FF31C16001610421416151
:10345000DFF8101C0422C1F8B821DFF80C1C016051
:103460000120704701F1080313F0070305D001F1B3
:103470000803C3F1080303F007035918D21A816146
:10348000C26042F001034B60511828224A60DFF805
:10349000D01B0969C16170472DE9F84F054601F15C
:1034A000080010F0070005D001F10800C0F1080085
:1034B00000F0070000EB010A02F1080010F007001D
:1034C00005D002F10800C0F1080000F007008418E0
:1034D00003EB0A07A4EB0A00A0EB030843F0030088
:1034E000CAF80400A74228BF03F01FF92079C007DB
:1034F00058BF03F01AF9B8F1100F38BF03F015F9EF
:10350000A869844207D1E8684044E860AF6140F0B0
:103510000100786048E16869844208D1A8684044A5
:10352000A8606F6140F001017960C0513CE16068C2
:1035300000F00301012940F09F80C008C000009006
:103540004FEAD00BBBF1200F2FD2D4F80890E668D9
:10355000B44208BF03F0E9F84C4508BF03F0E5F8B2
:103560006068C008C000B0EBCB0F18BF03F0DDF8F7
:10357000B14506D12868012101FA0BF18843286082
:1035800077E005EBCB0000F12801894502D02969DD
:1035900089456CD32830864202D02869864266D39A
:1035A000C9F80C60C6F8089063E0D4F81890E66893
:1035B000A64206D0A068296988421DD3C660B060C3
:1035C0001CE004F11400066836B904F11000066826
:1035D000A6B101E00846066806F114010A68002A4F
:1035E00002BF06F110010A68002AF3D12969884256
:1035F00002D30021016001E003F097F8B9F1000F58
:1036000037D0E06905EB800000F5987001688C42C6
:1036100009D10660300014D168680121E269914047
:103620008843686025E02869814508D3D9F81000EF
:10363000A04214BFC9F81460C9F8106001E003F09B
:1036400074F8B6B12869864211D3C6F8189021697A
:1036500029B1814226BF31618E6103F066F860694D
:1036600038B12969884202D37061866101E003F0B4
:103670005CF800980419804460684008400060606D
:1036800048F00100786048F807804FEAD806202EFD
:103690001FD205EBC60000F12804A146B8F1100FB7
:1036A00038BF03F042F80120B0402968014202D13E
:1036B0000843286006E0A068296988422CBF81463B
:1036C00003F033F8A760C9F80C70C7F80890FC60E5
:1036D0006AE05FEA182008BF002123D0B0F5803FE0
:1036E00028BF1F211ED2A0F58071090C01F008012E
:1036F0008840A0F58052120C02F004029040A0F520
:1037000080431B0C03F00203C1F10E01891AC91A90
:10371000984001EBD030C11D28FA01F101F0010100
:1037200001EB400105EB810000F59872F961002082
:1037300078613861012088406B68034204D11843E6
:1037400068601760BA611DE010681F290EBF002174
:103750004908C1F1190108FA01F100E01046426878
:10376000D208D200424510D0CA0F00EB820202F10B
:10377000100349001A68002AF0D129698B4211D33D
:103780001F60B861FF60BF600EE081682A699042E7
:1037900028BF914206D3CF608760B960F8600020EF
:1037A000B86101E002F0C1FF0AF10800BDE8F28F44
:1037B0002DE9FE4F0446A56904F5DE7001688D42CF
:1037C00003D3426851188D4202D380680028F5D196
:1037D000416800680E18A6F12F0000F1080111F0F1
:1037E000070105D000F10801C1F1080101F007014E
:1037F00001EB000A05F11000824538BFAA460AF124
:10380000080B0AF1180900270198A0F12802009975
:103810002046FFF727FE1BF0070018BF02F085FFC8
:103820001B20CAF8040004F5DE70B0E80E10ABE807
:103830000E10ABF110010098C4F8BC010198C4F857
:10384000C0010298C4F8C801C4F8C41100E0814660
:1038500009F104000721C9F804107F1C011DB142C1
:10386000F5D3022FB8BF02F060FFAA4500F09C809C
:10387000AAEB050041194A68520852004A6040F01C
:10388000010169604051C708202F1FD204EBC70116
:1038900001F12806B046102838BF02F046FF01218A
:1038A00001FA07F02168014202D10843206006E0D6
:1038B000B068216988422CBF804602F036FFB560AF
:1038C000C8F80C50C5F80880EE606DE0010A08BF2A
:1038D000002223D0B1F5803F28BF1F221ED2A1F5C0
:1038E0008072120C02F008029140A1F580531B0C6B
:1038F00003F004039940A1F58046360C06F0020659
:10390000C2F10E02D21A921BB14002EBD131CA1D94
:1039100020FA02F202F0010202EB410204EB820102
:1039200001F59873EA6100216961296101219140E3
:1039300066680E4205D141EA060060601D60AB6119
:103940001DE019681F2A0EBF00225208C2F1190299
:1039500000FA02F200E019464B68DB08DB00834204
:1039600010D0D30F01EB830303F11006520033682C
:10397000002BF0D12069864211D33560A961ED603A
:10398000AD6011E088682269914228BF904206D359
:10399000C5608D60A860E9600020A86104E003B004
:1039A000BDE8F04F02F0C1BE03B0BDE8F08FF8B53E
:1039B00004460D46DFF8A866306808B9FFF738FD01
:1039C00002F0B6FE01001CBF0A6811F1010F00F001
:1039D0008A80D4F8B0011018C4F8B001D4F8B4311A
:1039E000834238BF0346C4F8B431A06958BB20698C
:1039F00008B1814200D22161C4F8BC11C4F8C021D1
:103A00000020C4F8C801306860624FF0FF302062C7
:103A10002046202300F12806F660B66008305B1EC1
:103A2000F8D1DFF84006844208BF283A27D054F87E
:103A3000040CC00814EBC00008385118091AA1F191
:103A4000280201461BE004F5DE70034600E09B6897
:103A5000CBB15E681F68F619B142F8D11E7B3607FC
:103A600011D4A669BE420ED3D3F804C06744BE4247
:103A700009D202EB0C005860E0681218A1692046D8
:103A8000FFF7F0FC1EE02369994238BF216103462D
:103A9000501800E09B688BB11E688642FAD1187BF3
:103AA00000070BD4304619605E6892195A602B46A5
:103AB0000246204601B0BDE8F040EDE40023204678
:103AC000FFF776FEE06885420DD2401BE060A169F9
:103AD0006A18A26140F00100506045F003004860A0
:103AE00001F10800F2BD0020F2BD2DE9F84F0546B6
:103AF0008B460024CBF100085FEA1B2023D0B0F5F1
:103B0000803F28BF1F201ED2A0F58071090C01F054
:103B100008018840A0F58052120C02F00402904087
:103B2000A0F580431B0C03F00203C1F10E01891ABA
:103B3000C91A984001EBD030C11D2BFA01F101F0F8
:103B4000010101EB400005EB8001D1F8301129B3F0
:103B50001F280EBF00224208C2F119020BFA02F21E
:103B6000002300E052004E68F608F600A6EB0B06B4
:103B7000464503D20C465FEA06080BD04E69D70FC4
:103B800001EB87010969002E1CBF8E4233460029D4
:103B9000E8D1194600293BD1002C3BD1012101FA83
:103BA00000F04000414208436968084000F0578136
:103BB00041420840411E080B00F0100021FA00F2BB
:103BC000510901F00801CA40930803F00403DA40E8
:103BD000560806F00206F240C2F34007081818180B
:103BE0003018384422FA07F1081805EB8000D0F8A5
:103BF00030110DE001464868C008C000A0EB0B0082
:103C000040453CBF80460C4608690028F2D149690E
:103C10000029F0D1002C00F02281A868A0EB0B0055
:103C2000804580F01C8128698442C0F016810BEB2E
:103C300004060BEB08096068C008C000484518BFBF
:103C400002F073FDB44280F00881D4F818A0E76850
:103C5000A74206D0A068296988421DD3C760B86012
:103C60001CE004F11400076837B904F1100007687C
:103C7000A7B101E00846076807F114010A68002AA5
:103C800002BF07F110010A68002AF3D129698842AE
:103C900002D30021016001E002F047FDBAF1000FFC
:103CA00038D0E06905EB800000F5987001688C421F
:103CB00009D10760380014D168680121E269914098
:103CC0008843686026E02869824508D3DAF8100046
:103CD000A04214BFCAF81470CAF8107001E002F0D4
:103CE00024FDBFB12869874212D3C7F818A0206904
:103CF00030B12969884226BF3861876102F015FD1D
:103D0000606938B12969884202D37861876101E02E
:103D100002F00BFDB8F1100F09D249F0030060600A
:103D200009EB0400416841F00101416091E04BF072
:103D30000300606048F00100706048F806804FEAB8
:103D4000D80020281BD205EBC00101F12807B84696
:103D5000012101FA00F02968014202D108432860DC
:103D600006E0B868296988422CBF804602F0DDFC75
:103D7000BE60C8F80C60C6F80880F76069E05FEACA
:103D8000182008BF002223D0B0F5803F28BF1F2293
:103D90001ED2A0F58071090C01F008018840A0F541
:103DA0008052120C02F004029040A0F580431B0CDC
:103DB00003F00203C1F10E01891AC91A984001EB00
:103DC000D030C11D28FA01F101F0010101EB4002E0
:103DD00005EB820000F59870F2610021716131619C
:103DE000012191406B680B4203D119436960066061
:103DF0001CE000681F2A0EBF00215108C1F1190103
:103E000008FA01F100E010464268D208D2004245AB
:103E100010D0CA0F00EB820202F1100349001A68A9
:103E2000002AF0D129698B4211D31E60B061F6607F
:103E3000B6600EE081682A69904228BF914206D39D
:103E4000CE608660B160F0600020B06101E002F0F9
:103E50006CFC04F10800BDE8F28F02F066FCFBE0A8
:103E60002DE9F84F04468846606841420840411EEB
:103E7000080B00F01000C1404A0902F00802D140CE
:103E80008B0803F00403D9404D0805F00205E94012
:103E9000C1F340061018181828443018F1400818CB
:103EA00004EB8000D0F8300106464168C908C9001B
:103EB000A1EB080A09E008464168C908C900A1EB5E
:103EC000080151453CBF8A46064601690029F2D1E6
:103ED00040690028F0D120698642C0F0BB8008EB21
:103EE000060B08EB0A097068C008C000484518BFF7
:103EF00002F01BFC5E4580F0AD80B569F768B74203
:103F000006D0B068216988421DD3C760B8601CE044
:103F100006F11400076837B906F110000768A7B169
:103F200001E00846076807F114010A68002A02BF89
:103F300007F110010A68002AF3D12169884202D3EF
:103F40000021016001E002F0F0FB002D34D0F069A7
:103F500004EB800000F5987001688E4209D107607B
:103F6000380011D160680121F26991408843606096
:103F700022E02069854205D32869B04214BF6F61F1
:103F80002F6101E002F0D1FBB7B12069874211D364
:103F9000BD61306930B12169884226BF38618761CF
:103FA00002F0C3FB706938B12169884202D378619D
:103FB000876101E002F0B9FBBAF1100F09D249F0B4
:103FC0000300706009EB0600416841F001014160A7
:103FD0003CE048F0030070604AF00100CBF80400B8
:103FE0004AF80BA0D4F80880B8F1000F2AD0D4F812
:103FF00014904FEAD805202D28BF02F096FB0095BB
:1040000004EBC50000F128052F46B8F1100F38BFAA
:1040100002F08BFB0120009988402168014202D107
:104020000843206006E0A868216988422CBF074643
:1040300002F07BFBC5F80890C7F80C90C9F808702F
:10404000C9F80C50C4F808A0C4F814B006F1080070
:10405000BDE8F28F02F069FB0020BDE8F28F00009E
:1040600080200020F41400206859883C2DE9F04F8E
:1040700083B00546C046C046DFF87447F52D80F092
:10408000F4800B2D31BF102705F10B00C008C700CD
:10409000FE082068F04010F0030F3DD0C04300F050
:1040A0000100861904EBC60000F12808D8F8085072
:1040B000F7006868C008C000B84218BF02F035FBBE
:1040C000D5F80890454508BF02F02FFB4D4508BFC5
:1040D00002F02BFB6868C008C000B84218BF02F0AD
:1040E00024FBC84505D120680121B14088432060E8
:1040F00008E02069814526BFC8F80890C9F80C80FF
:1041000002F013FB47F0030068607819416841F042
:10411000010141600835F0E0A168B94280F0B78044
:10412000002800F09980012505FA06F14900B04009
:104130004A421143084041420840411E080B00F02A
:104140001000C1404A0902F00802D1408B0803F078
:104150000403D9404E0806F00206F140C1F34008BE
:10416000101818183018404421FA08F101EB000823
:1041700004EBC80000F12809D9F808604FEAC80A22
:104180007068C008C000504518BF02F0CEFAD6F8DB
:1041900008B04E4508BF02F0C8FA5E4508BF02F0FD
:1041A000C4FA7068C008C000504518BF02F0BDFADC
:1041B000D94505D1206805FA08F18843206008E058
:1041C0002069834526BFC9F808B0CBF80C9002F0EF
:1041D000ACFAAAEB070847F003007060B81900902A
:1041E00048F001014160009848F80080A76867B373
:1041F000D4F814904FEAD70ABAF1200F28BF02F082
:1042000094FACDF804A004EBCA0000F1280AD346C2
:10421000102F38BF02F089FA019805FA00F02168E2
:10422000014202D10843206007E0DAF80800216962
:1042300088422CBF834602F078FACAF80890CBF87F
:104240000C90C9F808B0C9F80CA0C4F80880009810
:10425000606106F1080550E06068C0B33946204649
:10426000FFF7FEFD050012D047E015F1400F28BF13
:104270004FF0FF370BD205F10B00C008C700606894
:1042800028B139462046FFF730FC050035D1A1683A
:10429000B9421CD3CA1B6069102A0AD3391861615C
:1042A000A26042F001034B60525047F003014160AD
:1042B0000AE00022A260626141F003024260091834
:1042C0004A6842F001024A6000F1080515E0E06822
:1042D00087420DD2C01BE060A1697A18A26140F04C
:1042E0000100506047F00300486001F1080504E058
:1042F00039462046FFF75BFB0546C046C0462846C8
:10430000FFF752BB00B970472DE9F047A0F1080450
:10431000C046C046DFF8D85428698442C0F06082A5
:10432000616801F00302012A00F05A82CA084FEACC
:10433000C20808EB0409CA072DD4226811F0030F44
:1043400000F05082904451420C198442C0F04882DF
:1043500069698C4200F0D4804FEAD20ABAF1200F8A
:104360006FD2A668E768BC4208BF02F0DEF9B4422B
:1043700008BF02F0DAF96068C008C000B0EBCA0FED
:1043800018BF02F0D2F9BE4246D12868012101FAD5
:104390000AF1884328604C4580F02282D9F8040055
:1043A000C10740F11D82810700F17381A969894528
:1043B00040F0BB80E8684044E860AC6140F0010137
:1043C000616069698C4202D100216961A960E96973
:1043D000814280F00782DFF81404006808B9FFF713
:1043E00027F8A869002800F0FD81E96829290BD386
:1043F00005F5DE721368984203D35468E3189842B7
:1044000002D39268002AF5D1E869884280F0EA81F7
:104410004FF0FF30E861E5E105EBCA0000F128014B
:104420008E4202D029698E4208D32830874202D0BA
:104430002869874202D3F760BE60ACE702F075F9E5
:10444000A9E7A669E768A74205D0A16881421CD305
:10445000CF60B9601BE004F114010F6837B904F1B3
:1044600010010F689FB101E011460F6807F11402B7
:104470001368002B02BF07F110021368002BF3D161
:10448000814202D30020086001E002F04EF9002EC4
:104490003FF481AFE06905EB800000F5987001689A
:1044A0008C4209D10760380011D168680121E269A6
:1044B0009140884368606EE72869864205D3306979
:1044C000A04214BF7761376101E002F02EF9002F9E
:1044D0003FF461AF28698742B0D3BE61216929B139
:1044E000814226BF39618F6102F01FF9606900289F
:1044F0003FF451AF29698842A0D3786187614AE7C8
:1045000099F8040000F0030003287FF444AFC5F8D5
:104510000880D9F8040040084000C9F8040048F0B9
:104520000100606048F804805CE16969894508D150
:10453000A8684044A8606C6140F0010161600051CE
:1045400050E1C008C00080444FEAD00ABAF1200F01
:104550002FD2D9F80860D9F80C70B94508BF02F01D
:10456000E4F8B14508BF02F0E0F8D9F80400C0084B
:10457000C000B0EBCA0F18BF02F0D7F8BE4206D198
:104580002868012101FA0AF18843286076E005EBEA
:10459000CA0000F128018E4202D029698E426BD3F5
:1045A0002830874202D02869874265D3F760BE6011
:1045B00064E0D9F81860D9F80C704F4507D0D9F8E5
:1045C0000800296988421DD3C760B8601CE009F162
:1045D0001400076837B909F110000768A7B101E0B6
:1045E0000846076807F114010A68002A02BF07F1AC
:1045F00010010A68002AF3D12969884202D30021F8
:10460000016001E002F091F8002E37D0D9F81C00CB
:1046100005EB800000F59870016889450AD10760B4
:10462000380012D168680121D9F81C2091408843D4
:10463000686023E02869864205D33069484514BF85
:104640007761376101E002F070F8BFB128698742F5
:1046500012D3BE61D9F8101029B1814226BF396149
:104660008F6102F062F8D9F8140038B129698842E4
:1046700002D37861876101E002F057F848F0010049
:10468000606048F80480686984420BD1C5F80880EE
:10469000A8E040084000C9F8040048F0010060604C
:1046A00048F804804FEAD807202F20D205EBC70036
:1046B00000F128094E46B8F1100F38BF02F035F866
:1046C0000120B8402968014202D10843286007E070
:1046D000D9F80800296988422CBF064602F025F85F
:1046E000C9F80840F460A660C4F80C907AE05FEA6C
:1046F000182008BF002123D0B0F5803F28BF1F211C
:104700001ED2A0F58071090C01F008018840A0F5C7
:104710008052120C02F004029040A0F580431B0C62
:1047200003F00203C1F10E01891AC91A984001EB86
:10473000D030C11D28FA01F101F0010101EB400167
:1047400005EB810000F59872E16100206061206155
:10475000012088406B68034204D1184368601460EC
:10476000A2611DE010681F290EBF00214908C1F198
:10477000190108FA01F100E010464268D208D2009F
:10478000424510D0CA0F00EB820202F1100349002B
:104790001A68002AF0D129698B4211D31C60A061EC
:1047A000E460A4600EE081682A69904228BF9142CB
:1047B00006D3CC608460A160E0600020A06101E0CD
:1047C00001F0B3FF286A401E28620BD1D5F8C4015E
:1047D00000E080680028FCD14FF0FF30286201E043
:1047E00001F0A3FFC046C046BDE8F087802000204E
:1047F000F41400204FF4001C1CEB410F94BF1CEB81
:10480000430F09E041EA030C50EA4C0C52EA0C0C4D
:1048100003D2994208BF9042704714BF8B42824234
:1048200070472B00F446400D40EAC120490006D2F3
:1048300000F014F8004248BF6FF00040604700F0FD
:104840000DF84FF0004188428CBF08464042604757
:10485000400D40EAC120490080F00D8040F000404A
:10486000490DA1F58061491C05D4D1F11F0154BF48
:10487000C840C01770474FF000007047010040F17A
:104880000980F446404200F005F851F000416047CD
:10489000010000BF09D0B0FA80F18840C91CC1F501
:1048A0008461090501EBD0214005704790420CD18D
:1048B00041EA030C50EA4C0C07D0994205D14FF461
:1048C000001C1CEB410F38BF89427047F0B540F225
:1048D000FF7581EA030C0CF0004C15EA11541DBF62
:1048E00015EA1357AC42AF42E5E0BC41C1F31301F6
:1048F000C3F31303801A994143F4801304D2641E56
:104900004000494180185941C90241EA5051B1FB68
:10491000F3F603FB1611A2FB0675D7EBC020A941E5
:1049200002D2761E80185941C90241EA5051B1FBAA
:10493000F3FE03FB1E11A2FB0E75D7EBC020A941AD
:1049400003D2AEF1010E80185941890241EA90511B
:10495000760546EA8E2EB1FBF3F603FB1611A2FB99
:104960000675D7EB8020A94102D2761E80185941E6
:10497000C90241EA50514EEA060EB1FBF3F603FBC1
:104980001611A2FB0675D7EBC020A94102D2761EF4
:1049900080185941C90241EA5051B1FBF3F703FBBA
:1049A0001711A2FB0735D3EBC020A94167F100071F
:1049B0000CBF004247F0010766F3D5274FEA1E31CE
:1049C000B80814F5806412DDBD0775F1004250EBA4
:1049D0000E5051EB045111F5801F5CBF41EA0C01F0
:1049E000F0BD4CF07F6141F0E0410020F0BDBD071B
:1049F0006D0840EA0E5041F48011D4F10104B4F185
:104A000020060ADAC4F120060200E04001FA06F3AB
:104A1000E1401843B24015430EE0342C13DCC6F1DC
:104A2000200445EA40056D0820FA06F2154321FAF4
:104A300006F0A1400D43002175F1004250F1000045
:104A400051EB0C01F0BD00205FEA0C01F0BDCFB9C5
:104A500092185B41B3FA83F704BFB2FA82F6BF192A
:104A60000B3FB7F120062FBF02FA06F3BB40C7F198
:104A7000200622FA06F638BF3343BA401CB1E419C7
:104A8000641E33E77F4231F00041B1FA81F404BF84
:104A9000B0FA80F6A4190B3CB4F120062FBF00FA3F
:104AA00006F1A140C4F1200620FA06F638BF3143D2
:104AB000A0403C1B1AE7AC421ABF05EA1357AF42AD
:104AC00012E050EA41061CBF52EA4306BFE750EA33
:104AD0004107304661461CBF41EA0551F0BD52EA2C
:104AE000430C08BFC143F0BD00204FF4001616EB85
:104AF000410F98BF16EB430F08BF16EB410F24BFC1
:104B0000C14305E016EB430F0CBF61464CEA05516B
:104B1000F0BDFEE7820707D010F8012B11F8013B2A
:104B2000BAB19A42F6D014E002680B689A42A2F138
:104B3000013301BF934313F0803F50F8042F51F825
:104B4000043FF3D010F8012B11F8013B0AB19A424F
:104B5000F8D0D01A704702000300002013F0030FB2
:104B600009D0521E22BF13F8010B11F801CBB0EB94
:104B70000C00F3D07047121F22BF53F8040B51F8FA
:104B800004CB6045F7D0121D0AD200BA9CFA8CFC07
:104B9000B0EB0C0038BF6FF0000088BF01207047F9
:104BA000521E22BF13F8010B11F801CBB0EB0C0021
:104BB000F6D0521C08BF10467047000070B44FF08A
:104BC000004591EA030C44BF6B4000F07FB800BF82
:104BD000841A71EB030603D2001BB1411219734111
:104BE0004FF4001C1CEB410F34BF7CEB430443E04B
:104BF0000C0DA4EB1356352E50DC45EAC323DB0A1B
:104C000045EAC121C912B6F120050DDD63FA05F6AA
:104C1000EB4086EA0305124218BF45F00105C018B3
:104C200051F100010CD213E062FA06F5F240554052
:104C3000F3415A40B340F3405A408018594107D3DA
:104C400049085FEA30005FEA350528BF45F00105F5
:104C500001F58011420875F1004250F1000041EB6E
:104C6000045170BC4FF4001C1CEB410F38BF70475F
:104C70000020090D090570471CEB410F10D252EAC4
:104C800043060BD0BCEB410F05D80C0DAB43661EA1
:104C9000342EB5DD02E0AB438018594170BC70473B
:104CA00070BC704710B5040010000A00010020001D
:104CB00001F0CCFC200010BD70B44FF0004591EA2B
:104CC000030F44BF6B40FFF783BF00BF841A71EB33
:104CD000030604D26E40001BB141121973414FF418
:104CE000001C1CEB410F34BF7CEB430684E00C0D31
:104CF000A4EB1356362E7DDC012E43DC45EAC3239C
:104D000043EA525312BFD20292025B08240545EADD
:104D1000C12141EA5051D2EBC020994125D407D19D
:104D2000B0FA80F610FA06F164D00020203608E0D0
:104D3000B1FA81F6B140C6F1200220FA02F2114325
:104D4000B0404FEAF474B4EB465434F001064FEA35
:104D500074040AD8D6F50016760D04F00044F0402D
:104D600061FA06F25040F1404840C00A40EA415022
:104D700021F0004128BF5FEA500550F1000044EBEC
:104D8000D12137E045EAC323DB0A45EAC121C90A3C
:104D9000B6F120050EDD42EA0242120CC5F12006F2
:104DA00003FA06F6EB4042EA06056D42984161F1CE
:104DB00000010DE062FA06F5F240554063FA06FC88
:104DC00082EA0C02F3405A406D42904161EB0301CC
:104DD00011F4801F05D1641E620502D06D004041B0
:104DE000494121F48011430875F1004350F100005E
:104DF00041EB045170BC70471CEB410F15D223F0FE
:104E0000004352EA43060BD04FEA4C0CBCEB410F77
:104E100004D80C0D661E342EB7DDEBE7801A9941DD
:104E200050EA410608BF0021E4E708BF1CEB430F2E
:104E300028BF6FF00001DDE780B50E48007890F0E4
:104E400001000C4908700B480078002804D00121AB
:104E5000094800F088F803E00121074800F086F8CF
:104E600001BD06480068401C0449086070470348BB
:104E70000068704748210020000C0140F820002005
:104E800011B581B00024FFF7F2FF0400FFF7EFFF38
:104E9000001B01998842F9D313BD0000F0B4002231
:104EA0000026002400250023002791F803C01CF0F1
:104EB0000F0C624691F803C05FEACC6C01D58B7889
:104EC0001A430B781B0621D00368002406E0CD7836
:104ED000482D02D10125A5400561641C082C14D27F
:104EE0000125A5400E882E40AE42F6D1A5000F2622
:104EF00016FA05F7BB4312FA05F52B43CD78282D9A
:104F0000E5D10125A5404561E7E703600B88B3F5CE
:104F1000807F26D34368002420E0012514F1080691
:104F2000B5400E882E40AE4217D1A5000F2616FAC6
:104F300005F7BB4312FA05F52B43CD78282D04D194
:104F4000012514F10806B5404561CD78482D04D1FE
:104F5000012514F10806B5400561641C082CDCD35A
:104F60004360F0BC704789B20161704789B241610A
:104F7000704770B40022002400230025194E3668C3
:104F80003300C0F30346350086B2320010F44016F9
:104F9000B6F5401F08D133F07063124C246834F02A
:104FA0007064104D2C600FE0C40205D50324AC40A2
:104FB000A34353F0706307E0440DE4B2240112FAF6
:104FC00004F4A34353F07063C9B2002905D0400D27
:104FD000C0B2000112FA00F003430248036070BC43
:104FE00070470000040001400FB410B586B04B9824
:104FF00001900020ADF808000020ADF80A00002064
:10500000ADF80C000020ADF810000C20ADF80E003B
:105010004A9CE4B2062C00D305240020ADF8200001
:105020000020ADF822000020ADF824000020ADF8EB
:1050300026004FF4807200210AA801F0CBFBE4B2F5
:10504000012C0AD0C0F0DB80032C62D03AD3052CAF
:1050500000F0AF80C0F08580D1E04FF40070ADF873
:10506000000018208DF8030003208DF8020000A92D
:10507000DFF8C402FFF712FF4FF48060ADF80000C4
:1050800004208DF8030000A9DFF8AC02FFF706FF4B
:105090004FF48050ADF808004FF48060ADF80C007C
:1050A000012240F22551DFF8940200F0B9F901A97C
:1050B000DFF8880200F05AF90121DFF8800200F0E1
:1050C000A1F99CE00420ADF8000018208DF8030041
:1050D00003208DF8020000A9DFF85C02FFF7DEFE76
:1050E0000820ADF8000004208DF8030000A99248C4
:1050F000FFF7D4FE012240F22551914800F090F9CB
:1051000001A98F4800F032F901218D4800F07AF9A9
:1051100075E04FF48060ADF8000018208DF80300B2
:1051200003208DF8020000A98648FFF7B7FE4FF470
:105130000060ADF8000004208DF8030000A981484C
:10514000FFF7ACFE012240F225517F4800F068F9DC
:1051500001A97D4800F00AF901217B4800F052F9CD
:105160004DE04FF48060ADF8000018208DF803008A
:1051700003208DF8020000A97448FFF78FFE4FF45A
:105180000060ADF8000004208DF8030000A96F480E
:10519000FFF784FE012240F225516D4800F040F9EE
:1051A00001A96B4800F0E2F80121694800F02AF9F2
:1051B00025E04FF48050ADF8000018208DF8030072
:1051C00003208DF8020000A96048FFF767FE042065
:1051D000ADF8000004208DF8030000A95D48FFF73A
:1051E0005DFE012240F225515B4800F019F901A94A
:1051F000594800F0BBF80121574800F003F906B008
:1052000010BC5DF814FB10B50400C9B289B22000CF
:1052100000F02FF98021200000F033F90028F9D0A8
:1052200010BD70B504000D00002605E0B6B2315D7A
:105230004248FFF7E8FF761CB6B2ADB2AE42F5D3F6
:1052400070BD70B504000D00002605E0B6B2315DFA
:105250003B48FFF7D8FF761CB6B2ADB2AE42F5D3ED
:1052600070BD70B504000D00002605E0B6B2315DDA
:105270003548FFF7C8FF761CB6B2ADB2AE42F5D3E3
:1052800070BD70B504000D00002605E0B6B2315DBA
:105290002F48FFF7B8FF761CB6B2ADB2AE42F5D3D9
:1052A00070BD70B504000D00002605E0B6B2315D9A
:1052B0002948FFF7A8FF761CB6B2ADB2AE42F5D3CF
:1052C00070BD70B505000C0040F22551280000F0BB
:1052D000E5F8002817D06688701C6080280000F070
:1052E000CCF8B6B2311908726088B0F5807F07D368
:1052F00000206080012240F22551280000F090F843
:10530000E088401CE08070BD80B515490B48FFF770
:10531000D8FF01BD80B511490948FFF7D2FF01BD93
:1053200080B510490848FFF7CCFF01BD80B50E4994
:105330000948FFF7C6FF01BD0008014000380140E1
:1053400000440040000C01400048004000100140B3
:10535000004C004000140140005000409019002013
:1053600088180020981A0020A81C0020F0B585B0ED
:1053700004000D0000200021002200230026AF8938
:10538000002F2600208A4CF6FF710840E988084368
:105390002082A0894EF6F3110840A9882A8911437A
:1053A0006A8911430843A081A08A4FF6FF41084053
:1053B000A9890843A08200A801F0A4FA10488642F7
:1053C00001D1039900E00299192000FB01F029683E
:1053D0008900B0FBF1F26420B2FBF0F0000101099A
:1053E000642303FB1123190132316422B1FBF2F172
:1053F00011F00F010843208105B0F0BD000000004E
:1054000000380140C9B2002904D0818951F400510B
:10541000818104E081894DF6FF72114081817047DE
:10542000F0B4002300240025002640F66A1789B254
:10543000B94206000800C0B24309DBB289B211F0DC
:105440001F04012010FA04F5012B01D10C3604E0F1
:10545000022B01D1103600E01436D2B2002A03D05C
:1054600030682843306002E03068A8433060F0BC08
:105470007047C905C90D818070478088C005C00D7F
:105480007047002289B2B1F5007F0088084201D040
:10549000012200E000221000C0B2704770B4002367
:1054A00000240025002240F66A1689B2B1420A00A3
:1054B000D2B25509EDB289B211F01F04012212FADD
:1054C00004F4012D02D18289144006E0022D02D19C
:1054D000028A144001E0828A144089B20B0A9BB20E
:1054E000012111FA03F300880340002C03D0002BA4
:1054F00001D0012200E000221000C0B270BC704751
:1055000008B584B00023029311B90093019302E01F
:105510000090481E019004AB00A907487844183059
:1055200000F066F8009909B100220A70002858BFFF
:10553000029805B000BD00BF33DDFFFF0DB400B51C
:1055400082B004A8009000AB0A4603A9034878443F
:105550000A3001F0BAFA06BC5DF810FB7FD3FFFFFA
:105560000278C9B28A421AB11CBF10F8012FF9E7BC
:1055700018BF00207047000008B400B584B005AB28
:1055800003930023029311B90093019302E000906A
:10559000481E019003AB00A9074878441A3000F078
:1055A00027F8009909B100220A70002858BF029814
:1055B00004B05DF808FB00BFB3DCFFFF00B500BF1F
:1055C000130096469446103928BFA0E80C50FAD82C
:1055D0005FEA417C28BF0CC048BF40F8042BC907D4
:1055E00028BF20F8022B48BF00F8012B00BD0000A7
:1055F0002DE9F04FA5B0804615461E460FF2B0507B
:10560000D0E90023CDE91223049104AF0020786291
:1056100014AC6FF0004900E055440020ADF80200E2
:1056200012AB4FF0FF3229460DF1020002F000F8F4
:105630008246BAF1010F08DA2878B0F1010A6AEB64
:105640000A0A6FEA0A004FEAD07ABDF8020025285C
:105650000CBFAAF101035346012B07DB2A4602A91E
:10566000404600F0CEFF002800F1E780BDF80200C0
:10567000252807D10020F86038617861B861F861A9
:10568000386205E00028C7D1786A99E240F001004D
:1056900015F8011F2029F9D023290DD02B2904D07A
:1056A0002D2906D030290AD00CE040F0020080B24B
:1056B000EEE740F00400FAE740F00800F7E740F0BA
:1056C0001000F4E72A290DD131680A1D32600968FB
:1056D000F962002904D54942F96240F0040080B221
:1056E0006D1C12E00021F96209E0F96A494505D014
:1056F00001EB810302EB43013039F9626D1C2A781A
:10570000A2F13001C9B20A29EFD329782E2903D09A
:105710004FF0FF31B9621DE015F8011F2A2906D1AB
:1057200031680A1D32600968B9626D1C12E00021FF
:10573000B96209E0B96A494505D001EB810302EB82
:1057400043013039B9626D1C2A78A2F13001C9B227
:105750000A29EFD3388629780FF25C40FFF700FF63
:1057600008B115F8010B8DF842009DF84200682839
:1057700004D1287868280AD1622005E06C2804BF8B
:1057800028786C2803D171208DF842006D1C14A874
:10579000B8602978B1F1250027D01C3800F0868048
:1057A000001F022840F28280133800F0A9800938D7
:1057B0007CD0801E00F03A81401E00F0E480401E44
:1057C000022873D9001F00F0DE80401F43D0401E26
:1057D00000F09680401E33D0C01E0BD0801E00F01B
:1057E0008F80C01E00F08C8040E1F868411CF96099
:1057F000252144E19DF842006C28306813D0011D3A
:10580000316000687860BA6A002A02D5FDF74AF86C
:1058100007E0002101F01CFF00281ABF7968401A38
:10582000B86A38612CE1011D3160026802A9404666
:1058300000F0C9F9002840F123814FF0FF30BFE1AB
:105840003068011D316000680021CDE9020114A813
:1058500078607821E6E09DF84200622818D0682838
:1058600006D06A280BD06C2819D0712807D016E012
:105870003068011D3160796A0068018000E132689A
:10588000101D3060786AC1171268C2E90001F7E0A4
:105890003068011D3160796A00680170F0E030689D
:1058A000011D3160796A00680160E9E03068C01D5F
:1058B00020F00700306000F108023260D0E90023D8
:1058C000CDE90223002B04D5F868421CFA602D2292
:1058D0000DE0388E820704D5F868421CFA602B224E
:1058E00005E0C00704D5F868421CFA602022025582
:1058F000F86814AA8018786002A800F05BFBBFE08B
:105900009DF842006C2808BF326811D0712808BF8A
:10591000326802D06A2832680AD1D21D22F007020A
:10592000326094460CF108023260DCE9002303E0A7
:10593000131D336012680023CDE90223682808BFD5
:1059400092B207D0622808BFD2B203D0742818BF21
:105950007A2802D10023CDE9022397F8300000070E
:105960005CD5DDE90223002B08BF002A56D041F0A8
:105970002000782852D1F86830220255401C421C81
:10598000FA6001554AE09DF8420062280CD0682870
:1059900010D06A281AD06C2823D0712816D0742809
:1059A0001FD07A280CD01CE03068021D326090F9BC
:1059B00000201AE03068021D3260B0F9002014E0C7
:1059C0003068021D3260026800230FE03068C01D9D
:1059D00020F00700306000F108023260D0E90023B7
:1059E00004E03068021D32600268D317CDE902235B
:1059F000002B04DAF868421CFA602D220DE0388E84
:105A0000820704D5F868421CFA602B2205E0C00723
:105A100004D5F868421CFA6020220255F86814AADE
:105A20008018786002A800F03AFA29E09DF8420058
:105A30006C2807D0F868411CF96031680A1D326093
:105A400009681CE03068011D31600068ADF8040091
:105A50000020ADF806004FF0FF30B86201AA02A99D
:105A6000404600F0B0F800280AD5E6E6F868421C87
:105A7000FA602522025519B1F868421CFA600155F6
:105A80006D1CF86AF968401AB969401A3969401AF8
:105A9000F969401A7969401A396AA0EB010A97F846
:105AA0003000400712D420208DF80000BAF1010F19
:105AB0000CDBD346012300AA02A9404600F0A1FD59
:105AC00000287FF4BAAEBBF1010BF3D1FB6814AA36
:105AD00002A9404600F095FD00287FF4AEAE3020CC
